:02000002B0004C
:1040000000400B004E500B00000006000C000502A3
:084010000401B41400000000DB
:04401800784D0B00D4
:10401C00034613F8012B002AFBD1181A01387047FC
:10402C0009480A49884208B505D0094A824202D09B
:10403C00121A00F0F1FD0748074A0021121A00F08D
:10404C00F9FD014808BD00BF64E60320B44F0B0026
:10405C00D0E60320D0E60320F0E7032070B5074E2E
:10406C00074C00F05FFDA41BA4080025AC4200D156
:10407C0070BD56F8043B98470135F7E76C4F0B00C1
:10408C00904F0B0000F014B808B500F02FF8BDE805
:10409C00084000F0FFBC00F0A1B900F0A7B900780F
:1040AC00B0FA80F04009704701230370704700009C
:1040BC0010B500F069FC4FF4165100F055FC0A4C99
:1040CC0000F062FC00F054FC28B900F05DFC2146C5
:1040DC0000F053FBF4E700F073FDBDE810404FF423
:1040EC00165100F0EBBB00BF8C4D0B0010B500F06F
:1040FC004BFC03681B69984700280ADD00F044FC60
:10410C0003685B699847044600F05AFDE1B200F081
:10411C0025FB00F055FD03681B69984700280CDD52
:10412C0000F04EFD03685B699847044600F02CFCD8
:10413C00E1B2BDE8104000F011BB10BD10B5074B4B
:10414C00074A9A600024C3E90044032000F0BAF83F
:10415C0021460120BDE8104000F0BCB8D0E6032099
:10416C000000FFFF08B5024B1B685B6C019308BD98
:10417C004802030008B5024B1B685B68019308BD3D
:10418C001802030008B5024B1B685B69019308BD5C
:10419C001802030008B5024B1B685B69019308BD4C
:1041AC006402030008B5024B1B689B68019308BDB1
:1041BC006802030008B5024B1B68DB68019308BD5D
:1041CC006802030008B5024B1B68DB68019308BD4D
:1041DC003C02030008B5024B1B681B69019308BD28
:1041EC003C02030008B5024B1B685B69019308BDD8
:1041FC003C02030008B5024B1B689B69019308BD88
:10420C003C02030008B5024B1B68DB69019308BD37
:10421C003C02030008B5024B1B689B6A019308BD66
:10422C003C02030008B5024B1B68DB6A019308BD16
:10423C003C02030008B5024B1B681B6C019308BDC4
:10424C003C02030008B5024B1B681B68019308BDB8
:10425C004C02030008B5024B1B685B68019308BD58
:10426C004C02030008B5024B1B681B69019308BD87
:10427C004C02030008B5024B1B685B69019308BD37
:10428C004C02030008B5024B1B689B69019308BDE7
:10429C004C02030008B5024B1B68DB69019308BD97
:1042AC004C02030008B5024B1B681B6A019308BD46
:1042BC004C02030008B5024B1B689B6A019308BDB6
:1042CC004C02030008B5024B1B685B68019308BDE8
:1042DC002002030008B5024B1B68DB6A019308BD82
:1042EC002002030008B5034B1B68D3F888300193F8
:1042FC0008BD00002002030008B5034B1B68D3F86F
:10430C009430019308BD00002002030008B5024B55
:10431C001B68DB6B019308BD4402030008B5024B1C
:10432C001B685B68019308BD4002030008B5024B93
:10433C001B689B68019308BD4002030008B5024B43
:10434C001B68DB68019308BD4002030008B5024BF3
:10435C001B681B69019308BD4002030008B5024BA2
:10436C001B685B69019308BD4002030008B5024B52
:10437C001B689B69019308BD4002030008B5024B02
:10438C001B68DB69019308BD4002030008B5024BB2
:10439C001B681B6A019308BD4002030008B5024B61
:1043AC001B681B6B019308BD4002030008B5024B50
:1043BC001B685B6B019308BD4002030008B5024B00
:1043CC001B681B6C019308BD4002030008B5024B2F
:1043DC001B685B6C019308BD4002030008B5024BDF
:1043EC001B681B68019308BD1C02030008B5024B37
:1043FC001B685B68019308BD1C02030008B5024BE7
:10440C001B681B6C019308BD1C02030008B5024B12
:10441C001B685B6C019308BD1C020300024800235F
:10442C000360FFF79FBE00BFDCE60320002240685C
:10443C001146FFF7ABBF002240681146FFF7B6BF2D
:10444C0040680022FFF7AABF4068002281F00101FA
:10445C00FFF794BF002340681A461946FFF786BF42
:10446C00002340681A461946FFF778BF00224068BF
:10447C001146FFF76BBF002240681146FFF756BF8D
:10448C00406800220221FFF759BF002340681A46FA
:10449C00FFF744BF024B03225A60024A1A6070476E
:1044AC00E0E60320B84D0B00704710B51821044608
:1044BC00FFF7F3FD204610BDF0B5037D062B8DB044
:1044CC000E4600F104074FF0000412D000F108056D
:1044DC0015F8011D0A22304600F059F9AF42044488
:1044EC0019D0002CF4D02E21304600F037F90444BA
:1044FC00EEE72F236A4639460A208DF80040FFF775
:10450C0049FE6846FFF784FD33680246DB6869465E
:10451C0030469847044620460DB0F0BD10B5054B0B
:10452C000446112240F8043B002100F083FB204696
:10453C0010BD00BFF44D0B000346074A10B543F8FD
:10454C00042B01F1100251F8044B43F8044B914237
:10455C00F9D10A781A7010BDF44D0B0010B59DF806
:10456C00084044EA032343EA024242EA016104237D
:10457C004160037510BD000007B5064B0360CB7896
:10458C0000938B784A780978FFF7E8FF03B05DF861
:10459C0004FB00BFF44D0B00014B024A1A6070473C
:1045AC00E8E60320004E0B00002340681A46FFF794
:1045BC00B5BE406800220221FFF7C0BE0022406851
:1045CC001146FFF7B3BE002240681146FFF7BEBE8E
:1045DC00002340681A461946FFF7C0BE0023406806
:1045EC001A461946FFF7C2BE40680021FFF7E6BE27
:1045FC0040680021FFF7EABE4068002281F001010B
:10460C00FFF7BCBE40680022FFF7C8BE002240681E
:10461C001146FFF7CBBE002240681146FFF7B6BE2D
:10462C002DE9F04395B014460D460746FFF776FF8B
:10463C0000211C220DA8009100F0FCFA40230C93E1
:10464C0020466B460CAA0021FFF7B4FD0446002857
:10465C004BD1024601216868FFF778FE02218046A3
:10466C0022466868FFF772FE009E81462146002EA6
:10467C003BD0002939D17368022B03D00A2B11D0FF
:10468C00F669F4E7B8F1000FFAD0716906A80431A5
:10469C0007ADFFF771FF0FCD3C1D0FC42B682370C6
:1046AC004146EDE7B9F1000FEAD07469102201A878
:1046BC0000F0C0FA06238DF8143001AD04F10803A4
:1046CC001834186859682A4603C20833A3421546A1
:1046DC00F7D101A906A807ADFFF72EFF0FCD3C1DA2
:1046EC000FC42B6823704946CAE70098FFF75AFDA0
:1046FC00384615B0BDE8F083024B034A1A6000221D
:10470C005A607047ECE603200C4E0B00F8B50646D9
:10471C000D468F180024BD420CD0336815F8011BD0
:10472C009B6830469847031E01DB1C44F3E7002CC2
:10473C0008BF1C462046F8BD13B50446084659B1BF
:10474C000191FFF765FC23680199DB68024620465E
:10475C0002B0BDE81040184702B010BD03689B685A
:10476C00184738B50D210546FFF7F8FF0A21044616
:10477C002846FFF7F3FF204438BD38B50546FFF750
:10478C00DBFF04462846FFF7ECFF204438BD30B56C
:10479C008BB00023012A8DF8243098BF0A2209AC73
:1047AC000D46B1FBF2F101FB125303F0FF03092B91
:1047BC0094BF30333733DBB2AA4204F8013DEFD952
:1047CC002146FFF7B9FF0BB030BD0000014B0022B2
:1047DC009A607047F4E60320054B02221A60054BE1
:1047EC00054A9A600020C3E90000FFF76BBD00BFCB
:1047FC0010E7032004E703200000FFFF024B1A68B8
:10480C00024B1A60704700BF64E6032014E70320D4
:10481C0070474174704708B5007CFFF7FBFC20EA39
:10482C00E07008BD08B5007CFFF7D4FC20EAE0700E
:10483C0008BD08B5007CFFF7DDFC40EAE07008BD60
:10484C0008B5007CFFF7CEFC40EAE07008BD007CA8
:10485C00FFF7D8BC37B5457C04462DB1207C03B09E
:10486C00BDE83040FFF7AEBC007C0191FFF7D2FCF5
:10487C0000280199F2DC284603B030BD10B5142194
:10488C000446FFF70AFC204610BD000010B54FF49B
:10489C007A730446084611460022C4E90123044BEE
:1048AC002360012320746374FFF7C4FC204610BD01
:1048BC00644E0B00007C0023FFF7B4BC0022FFF712
:1048CC00F9BF417470477047704708B50021007CF0
:1048DC00FFF7D8FC40EAE07008BD08B50121007C68
:1048EC00FFF7D0FC40EAE07008BD08B5007CFFF78C
:1048FC00C1FC20EAE07008BD08B5007CFFF7B2FCF3
:10490C0020EAE07008BD13B50446007C0191FFF766
:10491C00B1FC0028019901DC607C20B1207CFFF700
:10492C00B9FC20EAE07002B010BD007CFFF7BABC05
:10493C0010B514210446FFF7B0FB204610BD000053
:10494C0010B54FF47A73044608460021C4E90113EC
:10495C00044B23600123207463741146FFF772FC2F
:10496C00204610BD944E0B00007C0022FFF772BC59
:10497C00007CFFF79FBC10B514220446002100F008
:10498C0059F9204610BD000010B50F4C88B003A893
:10499C00FFF7F1FF2178BFF35B8F11F001010FD10D
:1049AC0020460191FFF77BFB019948B103AA074808
:1049BC00FFF7C6FF2046FFF777FB054800F026F906
:1049CC00024808B010BD00BF18E703201CE7032005
:1049DC00D3480B00002240681146FFF7B7BC0022F9
:1049EC0040681146FFF7D2BC002240681146FFF721
:1049FC00DDBC40680022FFF7D1BC4068002281F08A
:104A0C000101FFF7BBBC002340681A461946FFF7AB
:104A1C00ADBC002340681A461946FFF79FBC002224
:104A2C0040681146FFF782BC406800220221FFF764
:104A3C0085BC002340681A46FFF770BC024B042269
:104A4C005A60024A1A60704730E70320C44E0B00CC
:104A5C00014B1860704700BF68E6032008B50B4B8C
:104A6C0043B1FFF791FF03681B699847002801DDEC
:104A7C00AFF30080064B43B100F0A2F803681B694A
:104A8C009847002801DDAFF3008008BD000000004E
:104A9C000000000008B5FFF7E1FFFFF773FB014BC7
:104AAC00186008BD40E703200548064A064908B5CA
:104ABC00121A00F0B1F8054B054A1A6008BD00BF88
:104ACC0000F4032004F4032020500B0000F4032016
:104ADC001E1C279A07B5002300931A466FF0770126
:104AEC00FFF70AFC03B05DF804FB000007B5438830
:104AFC000A2B08D0502B0BD1094B1B684BB103B0C0
:104B0C005DF804EB1847FFF7E5FF03B05DF804FB15
:104B1C00002300931A466FF07701FFF7EDFBF4E7E3
:104B2C003CE7032010B512480021FFF76FFC114B36
:104B3C001A68114B9A42114B0CBF012200221A70B9
:104B4C0001D0FFF7B1FFFFF715FB044600F07AF830
:104B5C000B4B13B12046AFF3008000210848FFF740
:104B6C00D5FBBDE8104007480021FFF7BBBB00BFD9
:104B7C005D4A0B0000F403201E1C279A38E7032023
:104B8C0000000000F94A0B007047000038B50446DD
:104B9C0014252A46002100F04DF8258040250749B0
:104BAC0025812846258200F02FF8044960602846AC
:104BBC0000F02AF8E060204638BD00BFF84E0B002C
:104BCC0030B50E4D2978BFF35B8F11F0010487B01F
:104BDC0011D12846FFF763FA68B101A8FFF7D6FF99
:104BEC0001AA21460648FFF751FE2846FFF75CFA5A
:104BFC00044800F00BF8024807B030BD44E703202E
:104C0C0048E70320954B0B00FFF745BA00230146FC
:104C1C001A46184600F044B80A44914200F1FF339A
:104C2C0000D1704710B511F8014B03F8014F9142B8
:104C3C00F9D110BD02440346934200D1704703F8EA
:104C4C00011BF9E738B5104B1D68AB6B0446B3B9C3
:104C5C001820FFF7C3FB0246A86320B90B4B0C4886
:104C6C004221FFF7CBFB0B490B4BC0E900130B4B5D
:104C7C0083600B23838100210120C2E90401AB6B0B
:104C8C0000221C615A6138BD68E60320F94E0B0006
:104C9C00104F0B000E33CDAB34126DE6ECDE05007D
:104CAC002DE9F843DFF8B8800646D8F800001F4617
:104CBC000D46914600F056F8254B1C6834B9254C2E
:104CCC001C60254B13B11B68C4F8883063681F2B1C
:104CDC0007DDD8F8000000F047F84FF0FF30BDE8D2
:104CEC00F8834EB3D4F8880088B91C4B23B9D8F894
:104CFC00000000F038F8F0E74FF48470FFF76EFB1B
:104D0C000028F4D00023C0E94033C4F8880063685D
:104D1C0040F8239001229A4000EB8301D0F8003137
:104D2C001343C0F80031022EC1F8807002BFD0F8D6
:104D3C0004311343C0F804316368D8F800005A1CDE
:104D4C000233626044F8235000F00EF80020C6E7EE
:104D5C00E8E703205CE7032000000000E9430B00B8
:104D6C00CCE6032070477047704700002D400B00C5
:104D7C0069400B0091400B0095400B0000000000B7
:104D8C0041747461636820746865206172676F6E2A
:104D9C00206F6E746F2074686520636F6D7075740E
:104DAC0065722E00000000000000000097440B000C
:104DBC008D440B0083440B0079440B006D440B00B5
:104DCC0061440B00F5450B00FD450B0055440B00F1
:104DDC004D440B0043440B0039440B002D460B0093
:104DEC000000000000000000C5440B00B5440B009F
:104DFC00B7440B0061707000000000000000000060
:104E0C00B5450B00BF450B00C9450B00D3450B0046
:104E1C00DD450B00E9450B00F5450B00FD450B008E
:104E2C0005460B0011460B0019460B0023460B00E0
:104E3C002D460B0025592D256D2D25645425483AFA
:104E4C00254D3A2553257A0061736374696D6500AD
:104E5C0000000000000000001D480B0089480B00FA
:104E6C0061480B0019470B0031480B004D480B00F3
:104E7C003F480B005B480B001F480B0023480B00FE
:104E8C000000000000000000D5480B003D490B005D
:104E9C0013490B0019470B0005490B00D7480B00B1
:104EAC00E7480B0037490B00F7480B00CF480B00C5
:104EBC0000000000000000003F4A0B00354A0B00C8
:104ECC002B4A0B00E1490B001F4A0B00134A0B0045
:104EDC00F5450B00FD450B00074A0B00FF490B0085
:104EEC00F5490B00EB490B002D460B0000524545D4
:104EFC004E54206D616C6C6F6320737563636565D4
:104F0C00646564002F746D702F6A656E6B696E73C7
:104F1C002D4743432D31302D706970656C696E657A
:104F2C002D34385F32303230313132345F313630FB
:104F3C00363138303633392F7372632F6E65776C98
:104F4C0069622F6E65776C69622F6C6962632F736F
:104F5C0074646C69622F72616E642E6300000000D1
:104F6C0049410B0029440B00A1440B00A5450B0043
:104F7C0005470B00D9470B00E5470B0009480B0010
:044F8C00494A0B0083
:104F9000040000001400000003000000474E55000C
:104FA0004856C65442A6479BBBF766BC79E4F0E777
:044FB000FCFEC3A19F
:104FB400544E0B006CE603200000000000000000CB
:104FC40000000000000000000000000000000000DD
:104FD40000000000000000000000000000000000CD
:104FE40000000000000000000000000000000000BD
:104FF40000000000000000000000000000000000AD
:10500400000000000000000000000000000000009C
:0C5014000000000000000000ECE703209A
:04502000000000008C
:10502A0000000102030405060708090A0B0C0D0E0D
:10503A000F101112131415161718191A1B1C1D1EFE
:04504A001F202800FB
:04504E00785634124A
:04000003B000401CED
:00000001FF
